:020000040800F2
:10000000685300204D240108052501080925010831
:100010000D25010811250108152501080000000023
:100020000000000000000000000000001925010889
:100030001D2501080000000021250108491C0108B8
:1000400025250108292501082D250108312501084C
:1000500035250108392501083D25010841250108FC
:100060004525010849250108A91C01084D2501085D
:100070005125010855250108592501085D2501086C
:1000800061250108652501086925010800000000B7
:100090000000000000000000000000006D250108C5
:1000A000551C0108712501087525010879250108ED
:1000B0005F1C01087D2501088125010885250108AF
:1000C000892501088D25010891250108691C010871
:1000D000731C01087D1C0108952501080000000023
:1000E000992501089D250108A125010800000000AF
:1000F000000000000000000000000000A52501082D
:1001000000000000A9250108AD250108B12501085E
:1001100000000000000000000000000000000000DF
:10012000B5250108B9250108BD250108C12501082B
:10013000C5250108000000000000000000000000CC
:10014000000000000000000000000000871C010803
:10015000C9250108CD250108D1250108D5250108AB
:10016000D9250108DD25010800000000000000007D
:10017000000000000000000000000000000000007F
:1001800000000000E1250108000000000000000060
:10019000E5250108F8B50400A7683D682E68200031
:1001A00000F03BFD012801D101202FE004212000B7
:1001B00002F056FA002801D1012027E0402120005A
:1001C00001F07BFF002801D101201FE00021200069
:1001D00002F0B6F9002801D1012017E0DFF8A409E8
:1001E00068600021200001F0F0FF002801D101200B
:1001F0000CE00021200000F0D6F9012801D10120F7
:1002000004E001203070012060710020F2BDF8B5DB
:100210000400A7683D682E68200000F0FEFC01285D
:1002200001D101203EE0200001F07AF8012801D13F
:10023000012037E0200001F045FC012801D1012018
:1002400030E0200001F0EEF8012801D1012029E082
:10025000200001F097FA012801D1012022E02000BE
:1002600001F055FB012801D101201BE0200001F025
:1002700078F9012801D1012014E0200001F0DDF916
:10028000012801D101200DE0200000F022F8012812
:1002900001D1012006E000206860002030700020BD
:1002A00060710020F2BD70B50400A6683568A079C1
:1002B000012801D100200BE095ED010A200000F09B
:1002C00071FD012801D1012002E00120A071002070
:1002D00070BD70B50400A6683568A079002801D10A
:1002E000002012E0291D200000F0A1F8012801D112
:1002F00001200AE00021200001F067FF002801D161
:10030000012002E00020A071002070BD38B504007B
:100310000D002900200000F073FC32BD10B5040070
:10032000200000F07AFC10BD3EB504000D00002056
:10033000009001A9200000F0BDFC012801D101209E
:1003400032E06946200000F045F8012801D1012083
:100350002AE0BDF9040000EE100AB8EEC00ADDED97
:10036000000A20EE200ABDEEC00A85ED000ABDF9A4
:10037000060000EE100AB8EEC00ADDED000A20EE1D
:10038000200ABDEEC00A85ED010ABDF9080000EEA5
:10039000100AB8EEC00ADDED000A20EE200ABDEE1C
:1003A000C00A85ED020A00203EBD3EB504000D00E6
:1003B0006946200000F07EFC012801D1012008E000
:1003C000BDF8000028806846418869808088A88040
:1003D00000203EBD38B504000D006946200001F044
:1003E000B4FE002801D1012020E09DF80000002883
:1003F00006D0042810D0082806D00C2808D00FE01A
:10040000DFF86C0A286010E0DFF8680A28600CE06A
:10041000DFF8640A286008E0DFF8600A286004E07A
:10042000DFF8340B2860012000E0002032BD38B531
:1004300004000D006946200001F0EBFE002801D108
:10044000012049E09DF80000002814D0102815D0A4
:10045000202817D0302819D040281BD050281DD074
:1004600060281FD0702821D0802823D0902825D044
:10047000A02827D02AE0002028602CE0DFF8000A1E
:10048000286028E0DFF8FC09286024E0DFF8F8099C
:10049000286020E0DFF8EC0628601CE0DFF8EC09BB
:1004A000286018E0DFF8B40A286014E0DFF8B00A2A
:1004B000286010E0DFF8AC0A28600CE0DFF8A80A3A
:1004C000286008E0DFF8A40A286004E0DFF8880A62
:1004D0002860012000E0002032BD38B504000D0086
:1004E000A079012808D12900C9B2200000F008FC39
:1004F00001280AD1012009E02900C9B2200000F03A
:1005000024FC012801D1012000E0002032BD10B5FB
:100510002DED028B0400B0EE408AA079012808D1AD
:10052000B0EE480A200000F03DFC01280AD101206D
:1005300009E0B0EE480A200000F0AAFC012801D131
:10054000012000E00020BDEC028B10BD38B5040096
:100550000D006946200001F0F8FD002801D10120BE
:1005600020E09DF80000002806D0042810D00828BC
:1005700006D00C2808D00FE05FF08040286010E023
:100580005FF0814028600CE05FF08240286008E066
:100590005FF08340286004E0DFF8BC092860012098
:1005A00000E0002032BD70B504000D002800C0B28C
:1005B000002804D0022804D0042804D005E0002636
:1005C00005E0082603E00C2601E0012009E03100E7
:1005D000C9B2200001F095FD002801D1012000E002
:1005E000002070BD38B52DED028B0400B0EE408ABE
:1005F0009FED500AB4EE408AF1EE10FA01D50025C5
:1006000012E09FED4D0AB4EE408AF1EE10FA01D5EA
:10061000082509E09FED490AB4EE408AF1EE10FA90
:1006200001D50C2500E004252900C9B2200001F005
:1006300068FD002801D1012000E00020BDEC028B04
:1006400032BD70B504000D00160032002900C9B299
:10065000200000F0F8FA012801D1012000E000207C
:1006600070BD70B504000D0016003200D2B2290032
:10067000C9B2200000F0F8FA012801D1012000E001
:10068000002070BD38B504000D006946200002F05E
:1006900044FA002801D101200EE09DF80000002856
:1006A00004D0012805D10120287004E00020287022
:1006B00001E0012000E0002032BDF8B50400A76889
:1006C0003D682E68200000F0A8FA012801D1012021
:1006D0002FE00421200001F0C3FF002801D10120F8
:1006E00027E04021200001F0E8FC002801D1012092
:1006F0001FE00021200001F023FF002801D101208C
:1007000017E0DFF8440A68600021200001F0F8FDDE
:10071000002801D101200CE00421200000F0CCF9D8
:10072000012801D1012004E00120707001206071D6
:100730000020F2BD010000400100804001000041A6
:10074000F8B50400A7683D682E68200000F065FA3F
:10075000012801D101200DE0200000F022F801283D
:1007600001D1012006E000206860002070700020A8
:1007700060710020F2BD70B50400A6683568A079EC
:10078000012801D100200BE095ED010A200000F0C6
:1007900073FC012801D1012002E00120A07100209A
:1007A00070BD70B50400A6683568A079002801D135
:1007B000002012E0291D200000F0B2F8012801D12C
:1007C00001200AE00021200001F09AFD002801D15B
:1007D000012002E00020A071002070BD38B50400A7
:1007E0000D002900200000F00BFA32BD10B5040006
:1007F000200000F012FA10BD3EB504000D000020EC
:10080000009001A9200000F0BBFB012801D10120CC
:1008100032E06946200000F045F8012801D10120AE
:100820002AE0BDF9040000EE100AB8EEC00ADDEDC2
:10083000000A20EE200ABDEEC00A85ED000ABDF9CF
:10084000060000EE100AB8EEC00ADDED000A20EE48
:10085000200ABDEEC00A85ED010ABDF9080000EED0
:10086000100AB8EEC00ADDED000A20EE200ABDEE47
:10087000C00A85ED020A00203EBD3EB504000D0011
:100880006946200000F07CFB012801D1012008E02E
:10089000BDF8000028806846418869808088A8806B
:1008A00000203EBD38B504000D000DF1010120000F
:1008B00001F081FD002801D1012030E09DF8010008
:1008C000022803D1DFF8100A286027E069462000DB
:1008D00001F0D6FC002801D1012020E09DF80000A5
:1008E000002806D0042808D008280AD00C280CD0EC
:1008F0000FE0DFF8E809286010E0DFF8E40928607D
:100900000CE0DFF8E409286008E0DFF8E00928607F
:1009100004E0DFF844062860012000E0002032BD3A
:1009200038B504000D006946200001F00DFD0028D7
:1009300001D1012048E09DF80000002814D01028C3
:1009400015D0202817D0302819D040281BD0502887
:100950001CD060281ED0702820D0802822D090285B
:1009600024D0A02826D029E0002028602BE0DFF842
:100970001005286027E0DFF80C05286023E0DFF889
:10098000080528601FE07F4828601CE0DFF8FC04B1
:10099000286018E0DFF8C405286014E0DFF8C0051F
:1009A000286010E0DFF8BC0528600CE0DFF8B8052F
:1009B000286008E0DFF8B405286004E0DFF8980557
:1009C0002860012000E0002032BD38B504000D0091
:1009D000A079012808D12900C9B2200000F0F6FA58
:1009E00001280AD1012009E02900C9B2200000F045
:1009F00012FB012801D1012000E0002032BD10B51A
:100A00002DED028B0400B0EE408AA079012808D1B8
:100A1000B0EE480A200000F02FFB01280AD1012087
:100A200009E0B0EE480A200000F092FB012801D155
:100A3000012000E00020BDEC028B10BD38B50400A1
:100A40000D006946200001F0B6FC002801D101200C
:100A500031E00DF10101200001F012FC002801D16C
:100A6000012028E09DF80000022803D1DFF89C084F
:100A700028601FE09DF80100002806D0042808D057
:100A800008280AD00C280CD00FE0DFF88408286072
:100A900010E0DFF8800828600CE0DFF87C082860B0
:100AA00008E0DFF87808286004E0DFF8AC0428608C
:100AB000012000E0002032BD70B504000D002800C8
:100AC000C0B2002804D0022804D0042804D005E0D5
:100AD000002605E0042603E00C2601E0012009E0E1
:100AE0003100C9B2200001F0A7FB002801D101208C
:100AF00000E0002070BD000038B52DED028B040031
:100B0000B0EE408A9FEDA30AB4EE408AF1EE10FAEF
:100B100007D50221200001F02AFC00282ED1012057
:100B20002DE09FED9D0AB4EE408AF1EE10FA01D55A
:100B3000002512E09FED990AB4EE408AF1EE10FA1A
:100B400001D5042509E09FED960AB4EE408AF1EE46
:100B500010FA01D5082500E00C250021200001F045
:100B600006FC002801D1012009E02900C9B22000BB
:100B700001F062FB002801D1012000E00020BDEC63
:100B8000028B32BD0000D04270B504000D0016008B
:100B900032002900C9B2200000F055F8012801D127
:100BA000012000E0002070BD70B504000D001600AB
:100BB0003200D2B22900C9B2200000F055F8012855
:100BC00001D1012000E0002070BD38B504000D0007
:100BD0006946200001F0B4FF002801D101200EE099
:100BE0009DF80000002804D0022805D101202870BB
:100BF00004E00020287001E0012000E0002032BD68
:100C000038B504000D002900200001F043FA002847
:100C100001D1012000E0002032BD1CB504000020FD
:100C20008DF8000069462000FFF7EAFF012801D196
:100C3000012007E09DF800002178884201D00120C2
:100C400000E0002016BD70B504000D001600012361
:100C500032002900C9B2200001F0F6F9002801D1C4
:100C6000012000E0002070BD34B504000D00012318
:100C70006A462900C9B2200001F0F9F9002801D123
:100C8000012000E0002032BD38B504000D0028002E
:100C9000C0B20028012807D82900C9B2200002F0FC
:100CA0000FF8002804D101E0012002E0012000E05B
:100CB000002032BD3EB504000D0068460021002230
:100CC000C0E900126946200001F052FA002801D163
:100CD000012014E06846417809029DF8002051FA8D
:100CE00082F129809DF803100902827889186980B1
:100CF0009DF80510090200790818A88000203EBD63
:100D000070B504000D002800C0B2002806D00228EB
:100D100008D005D3042809D006D309E0102609E03D
:100D2000102607E0202605E0302603E0402601E0FB
:100D3000012009E03100C9B2200001F046FA002884
:100D400001D1012000E0002070BD10B402009468C1
:100D500023680800C0B2002806D002280AD006D3B3
:100D600004280DD009D30FE0454858600EE04448F0
:100D700058600BE04348586008E04348586005E07D
:100D8000DFF86C05586001E0012000E0002010BC95
:100D9000704700000100FA42010075430100FA4368
:100DA00001007A4438B52DED028B0400B0EE408A84
:100DB0009FED6F0AB4EE408AF1EE10FA01D51025CE
:100DC00048E09FED6C0AB4EE408AF1EE10FA01D5CE
:100DD00020253FE09FED680AB4EE408AF1EE10FA5C
:100DE00001D5302536E09FED650AB4EE408AF1EE7C
:100DF00010FA01D540252DE09FED9A0AB4EE408A05
:100E0000F1EE10FA01D5502524E09FED970AB4EEDB
:100E1000408AF1EE10FA01D560251BE09FED930AA0
:100E2000B4EE408AF1EE10FA01D5702512E09FED84
:100E3000900AB4EE408AF1EE10FA01D5802509E05F
:100E40009FED8C0AB4EE408AF1EE10FA01D59025A0
:100E500000E0A0252900C9B2200001F0B6F9002861
:100E600001D1012000E00020BDEC028B32BD00006A
:100E700023DB793D23DBF93D23DB793E23DBF93EA0
:100E8000000050410000D04100005042000050439B
:100E900001008B681A68DFED360AB4EE600AF1EEE5
:100EA00010FA02D5F2EE0A0A51E0DFED320AB4EE92
:100EB000600AF1EE10FA02D5F3EE0A0A47E0DFED20
:100EC0002E0AB4EE600AF1EE10FA02D5DFED9D0AAB
:100ED0003DE0DFED2A0AB4EE600AF1EE10FA02D529
:100EE000DFED990A33E0DFED5F0AB4EE600AF1EE60
:100EF00010FA02D5DFED950A29E0DFED5B0AB4EECA
:100F0000600AF1EE10FA02D5DFED140A1FE0DFED02
:100F1000570AB4EE600AF1EE10FA02D5DFED100ABE
:100F200015E0DFED530AB4EE600AF1EE10FA02D5D7
:100F3000DFED0C0A0BE0DFED4F0AB4EE600AF1EED4
:100F400010FA02D5DFED080A01E0DFED080AC2ED74
:100F5000010A002070470000000080BF0000D0435D
:100F6000004050440080CF44002050450020D04530
:100F7000010050410100D041010050420100D04227
:100F80003EB504000D00684600210022C0E90012B1
:100F90006946200001F087F9002801D1012014E002
:100FA0006846417809029DF8002051FA82F12980B3
:100FB0009DF8031009028278891869809DF8051050
:100FC000090200790818A88000203EBD70B5040011
:100FD0000D002800C0B2002806D0022808D005D392
:100FE000042809D006D309E0102609E0102607E0FE
:100FF000202605E0302603E0402601E0012009E03C
:101000003100C9B2200001F07BF9002801D1012094
:1010100000E0002070BD10B402009468236808004E
:10102000C0B2002806D002280CD007D3042810D064
:101030000CD311E0DFF8840A58600FE0DFF87C0A77
:1010400058600BE0DFF8780A586007E03D485860C8
:1010500004E0A748586001E0012000E0002010BC37
:1010600070470000010050430100D043014050444C
:101070000180CF440120504538B52DED028B04008E
:10108000B0EE408A9FED8B0AB4EE408AF1EE10FA82
:1010900001D5102548E09FED880AB4EE408AF1EEB4
:1010A00010FA01D520253FE09FED840AB4EE408A76
:1010B000F1EE10FA01D5302536E09FED810AB4EE4D
:1010C000408AF1EE10FA01D540252DE09FED7D0A12
:1010D000B4EE408AF1EE10FA01D5502524E09FEDE0
:1010E0007A0AB4EE408AF1EE10FA01D560251BE0D1
:1010F0009FED760AB4EE408AF1EE10FA01D5702524
:1011000012E09FED730AB4EE408AF1EE10FA01D5B9
:10111000802509E09FED6F0AB4EE408AF1EE10FAE7
:1011200001D5902500E0A0252900C9B2200001F0DA
:10113000E7F8002801D1012000E00020BDEC028B7F
:1011400032BD0000000050420000D0420000504379
:1011500001008B681A68DFED570AB4EE600AF1EE01
:1011600010FA02D5F2EE0A0A51E0DFED530AB4EEAE
:10117000600AF1EE10FA02D5F3EE0A0A47E0DFED5D
:101180004F0AB4EE600AF1EE10FA02D5DFED550A0F
:101190003DE0DFED4B0AB4EE600AF1EE10FA02D545
:1011A000DFED530A33E0DFED470AB4EE600AF1EEFB
:1011B00010FA02D5DFED4F0A29E0DFED430AB4EE65
:1011C000600AF1EE10FA02D5DFED4B0A1FE0DFED09
:1011D0003F0AB4EE600AF1EE10FA02D5DFED470ADD
:1011E00015E0DFED3B0AB4EE600AF1EE10FA02D52D
:1011F000DFED430A0BE0DFED370AB4EE600AF1EEF3
:1012000010FA02D5DFED3F0A01E0DFED3F0AC2ED43
:10121000010A00207047000010B504009FED360A57
:101220002000FFF774F9012801D1012040E00021DE
:10123000200000F066FF002801D1012038E00621DF
:10124000200001F08EFF002801D1012030E00021B4
:10125000200001F03BFF002801D1012028E00021FF
:10126000200001F00FFF002801D1012020E0002123
:10127000200001F0E1FE002801D1012018E0032147
:10128000200001F04AFF002801D1012010E0802158
:10129000200001F0A5FD002801D1012008E0102167
:1012A000200002F017F8002801D1012000E0002002
:1012B00010BD0000010050410100D041010050422A
:1012C0000100D042010050430100D043014050448E
:1012D0000180CF440120504500008C4000000C41AB
:1012E00000008C410000504200000C4200008C4283
:1012F0000000D042000050430000D0430040504462
:101300000080CF44002050450020D0450000FA4224
:10131000000075430000FA4300007A440000FA44DC
:1013200010B504000021200001F0D4FF002801D1F5
:10133000012018E00021200001F052FD002801D119
:10134000012010E00021200001F00BFF002801D156
:10135000012008E00021200001F0DFFE002801D17B
:10136000012000E0002010BD38B504000D006946E2
:10137000200001F014FB002801D101200EE09DF8AF
:101380000000002804D0202805D10120287004E0A6
:101390000020287001E0012000E0002032BD38B5B7
:1013A00004000D002900C9B2200001F0B6FE00289B
:1013B00001D1012000E0002032BD10B50400B3EEE1
:1013C0000A0A2000FFF7A3F8012801D1012028E034
:1013D0000021200000F095FE002801D1012020E02E
:1013E0001721200000F082F8012801D1012018E027
:1013F0000421200001F09CFA002801D1012010E016
:101400001021200001F070FA002801D1012008E02D
:101410008021200001F000F9002801D1012000E026
:10142000002010BD10B504000021200001F0F4F8E8
:10143000002801D1012018E00021200001F054FA19
:10144000002801D1012010E00021200001F070FAF5
:10145000002801D1012008E00021200000F046F81A
:10146000012801D1012000E0002010BD38B50400A2
:101470000D006946200001F0FDFB002801D101208C
:101480000EE09DF80000002804D0102805D10120AE
:10149000287004E00020287001E0012000E0002016
:1014A00032BD38B504000D002900200001F0ABFF6B
:1014B000002801D1012000E0002032BD10B5040059
:1014C0000221200001F0C8F9002801D1012000E02C
:1014D000002010BD10B504000021200001F0BCF96F
:1014E000002801D1012000E0002010BD38B5040023
:1014F0000D002900C9B2200001F0B2FF002801D17F
:10150000012000E0002032BD10B50400B3EE0A0A4D
:101510002000FEF7FCFF012801D1012020E000217E
:10152000200000F0EEFD002801D1012018E0042188
:10153000200001F0FDF9002801D1012010E0082170
:10154000200001F0ADF9002801D1012008E00221BE
:10155000200001F053FE002801D1012000E000200E
:1015600010BD10B504000021200001F047FE002846
:1015700001D1012010E00021200001F091F90028A4
:1015800001D1012008E00021200001F0D1F900285C
:1015900001D1012000E0002010BD38B504000D008D
:1015A0006946200001F079FB002801D101200EE0FE
:1015B0009DF80000002804D0202805D101202870C3
:1015C00004E00020287001E0012000E0002032BD8E
:1015D00010B504009FED6A0A2000FEF798FF01286D
:1015E00001D1012028E00021200000F08AFD002820
:1015F00001D1012020E00021200001F067FD00283A
:1016000001D1012018E00221200001F0CBFC0028CC
:1016100001D1012010E08021200001F0E1FB002831
:1016200001D1012008E02021200001F077FE0028F0
:1016300001D1012000E0002010BD10B50400002100
:10164000200001F06BFE002801D1012018E00021EC
:10165000200001F0C5FB002801D1012010E000218D
:10166000200001F033FD002801D1012008E0002115
:10167000200001F097FC002801D1012000E00020AB
:1016800010BD38B504000D006946200001F074F962
:10169000002801D101200EE09DF80000002804D0B0
:1016A000082805D10120287004E00020287001E0FE
:1016B000012000E0002032BD38B504000D002900F3
:1016C000C9B2200001F06EFC002801D1012000E029
:1016D000002032BD10B504009FED290A2000FEF75E
:1016E00016FF012801D1012048E00021200000F070
:1016F00008FD002801D1012040E00821200001F070
:101700004BFB002801D1012038E00421200001F02A
:101710001FFB002801D1012030E00221200001F050
:10172000F3FA002801D1012028E00821200000F070
:101730005DF9012801D1012020E00221200000F004
:1017400063F9012801D1012018E00121200000F0F7
:1017500069F9012801D1012010E08021200001F069
:101760003FFB002801D1012008E04021200001F0CA
:10177000F9FD002801D1012000E0002010BD00008B
:101780000000D04310B504000021200001F0EAFD64
:10179000002801D1012038E00021200001F020FBC9
:1017A000002801D1012030E00021200000F01EF9C6
:1017B000012801D1012028E00021200000F024F9B7
:1017C000012801D1012020E00021200000F02AF9A9
:1017D000012801D1012018E00021200001F094FA35
:1017E000002801D1012010E00021200001F0B0FA12
:1017F000002801D1012008E00021200001F0CCFAEE
:10180000002801D1012000E0002010BD38B50400FF
:101810000D006946200001F0E8F8002801D1012000
:101820000EE09DF80000002804D0202805D10120FA
:10183000287004E00020287001E0012000E0002072
:1018400032BD000010B504009FED9B0A2000FEF79A
:101850005EFE012801D1012058E00021200000F0A7
:1018600050FC002801D1012050E00821200001F0A7
:1018700093FA002801D1012048E00421200001F062
:1018800067FA002801D1012040E00221200001F088
:101890003BFA002801D1012038E00821200000F0A7
:1018A000A5F8012801D1012030E00321200000F03B
:1018B000ABF8012801D1012028E00321200000F02D
:1018C000B1F8012801D1012020E00821200000F01A
:1018D000B7F8012801D1012018E08021200001F093
:1018E00087FB002801D1012010E08021200001F0B9
:1018F00077FA002801D1012008E00821200001F03A
:10190000C5FC002801D1012000E0002010BD10B569
:1019100004000021200001F0B9FC002801D10120C1
:1019200048E00021200001F05BFA002801D10120ED
:1019300040E00021200000F059F8012801D10120E9
:1019400038E00021200000F05FF8012801D10120DB
:1019500030E00021200000F065F8012801D10120CD
:1019600028E00021200000F06BF8012801D10120BF
:1019700020E00021200001F03BFB002801D10120E4
:1019800018E00021200001F0BFF9002801D101205A
:1019900010E00021200001F0DBF9002801D1012036
:1019A00008E00021200001F0F7F9002801D1012012
:1019B00000E0002010BD38B504000D00694620008D
:1019C00001F000F8002801D101200EE09DF8000090
:1019D000002804D0102805D10120287004E0002040
:1019E000287001E0012000E0002032BD38B504007D
:1019F0000D002900C9B2200001F016FA002801D11B
:101A0000012000E0002032BD38B504000D0029009F
:101A1000C9B2200001F052FA002801D1012000E0F3
:101A2000002032BD38B504000D002900C9B22000E5
:101A300001F06AFA002801D1012000E0002032BD47
:101A400038B504000D002900C9B2200001F083FA66
:101A5000002801D1012000E0002032BD10B50400B3
:101A60009FED150A2000FEF752FD012801D101204B
:101A700020E00021200000F044FB002801D10120DB
:101A800018E04021200001F0F5F9002801D10120E3
:101A900010E08021200001F0A3F9002801D10120ED
:101AA00008E00421200001F0CDFB002801D1012035
:101AB00000E0002010BD00000000D04300005041B5
:101AC0000000D04110B504000021200001F0BAFB55
:101AD000002801D1012010E00021200001F080F950
:101AE000002801D1012008E00021200001F0C2F906
:101AF000002801D1012000E0002010BD38B504000D
:101B00000D006946200000F0F5FF002801D10120FA
:101B10000EE09DF80000002804D0402805D10120E7
:101B2000287004E00020287001E0012000E000207F
:101B300032BD38B504000D006946200000F068FF92
:101B4000002801D101200EE09DF80000002804D0FB
:101B5000012805D10120287004E00020287001E050
:101B6000012000E0002032BD38B504000D006946B8
:101B7000200000F060FF002801D101200EE09DF858
:101B80000000002804D0022805D10120287004E0BC
:101B90000020287001E0012000E0002032BD38B5AF
:101BA00004000D006946200000F058FF002801D114
:101BB00001200EE09DF80000002804D0042805D183
:101BC0000120287004E00020287001E0012000E0DE
:101BD000002032BD38B504000D006946200000F039
:101BE00050FF002801D101200EE09DF800000028E0
:101BF00004D0082805D10120287004E000202870B6
:101C000001E0012000E0002032BD38B504000D00E5
:101C10006946200000F048FF002801D101200EE0B5
:101C20009DF80000002804D0102805D1012028705C
:101C300004E00020287001E0012000E0002032BD17
:101C400038B504000D006946200000F040FF002870
:101C500001D101200EE09DF80000002804D02028CA
:101C600005D10120287004E00020287001E0012047
:101C700000E0002032BD000038B52DED028B0400DD
:101C8000B0EE408A9FED2F0AB4EE408AF1EE10FAD2
:101C900001D5082548E09FED2C0AB4EE408AF1EE0C
:101CA00010FA01D510253FE09FED280AB4EE408AD6
:101CB000F1EE10FA01D5182536E09FED250AB4EEB5
:101CC000408AF1EE10FA01D520252DE09FED210A82
:101CD000B4EE408AF1EE10FA01D5282524E09FEDFC
:101CE0001E0AB4EE408AF1EE10FA01D530251BE051
:101CF0009FED1A0AB4EE408AF1EE10FA01D53825AC
:101D000012E09FED170AB4EE408AF1EE10FA01D509
:101D1000402509E09FED130AB4EE408AF1EE10FA77
:101D200001D5482500E050252900C9B2200000F067
:101D30002BFC002801D1012000E00020BDEC028B2B
:101D400032BD0000010020410100C84101004842AD
:101D50000100C842010048430100C8430100484453
:101D60000100C84401404E4538B504000D006946E5
:101D7000200000F032FF002801D101200FE09DF883
:101D80000000002802D0202803D005E000202870A1
:101D900004E00120287001E0012000E0002032BDB5
:101DA00038B504000D006946200000F003FF00284C
:101DB00001D101200FE09DF80000002802D010287A
:101DC00003D005E00020287004E00120287001E025
:101DD000012000E0002032BD38B504000D00694646
:101DE000200000F00DFF002801D101200FE09DF838
:101DF0000000002802D0402803D005E00020287011
:101E000004E00120287001E0012000E0002032BD44
:101E100038B504000D002900200000F004FF002860
:101E200001D1012000E0002032BD38B504000D00D2
:101E30002900200001F0BAFA002801D1012000E0B9
:101E4000002032BD38B504000D002900200000F04C
:101E50008AFE002801D1012000E0002032BD38B503
:101E600004000D002800C0B20028072807D8290068
:101E7000C9B2200000F01CFB002804D101E00120C1
:101E800002E0012000E0002032BDFEB504000D009C
:101E900000260020019069462000FFF7C6FF0128B8
:101EA00001D101201CE09DF801009DF8007057EA67
:101EB000002701A92000FEF78DFA012801D1012099
:101EC0000EE0380000B200EE100AB8EEC00ADDEDF8
:101ED000010A20EE200ABDEEC00A85ED000A0020AE
:101EE000FEBD38B504000D002800C0B2002801284E
:101EF00004D9C01E012801D9C01E07D12900C9B2CA
:101F0000200000F01DFB002804D101E0012002E0C8
:101F1000012000E0002032BD38B504000D0028008B
:101F2000C0B2002801D0202807D12900C9B2200062
:101F300000F04EFB002804D101E0012002E0012066
:101F400000E0002032BD38B504000D00290089B240
:101F5000200000F067FA002801D1012000E00020F5
:101F600032BD38B504000D002800C0B2002801D0F1
:101F7000802807D12900C9B2200000F0BDFA00284E
:101F800004D101E0012002E0012000E0002032BD88
:101F900038B504000D002900C9B22000FEF774FE18
:101FA00032BD38B504000D002800C0B20028032857
:101FB00007D82900C9B2200000F09AFB002804D1FC
:101FC00001E0012002E0012000E0002032BDF0B479
:101FD0000246106895681318506803EB5004C00758
:101FE0001DD54D441BE013F8017B05F8017B491E0C
:101FF000F9D1A0B1B60813F8011B06F00306032EB1
:1020000008BF13F8016B01EB06214942801C2944EB
:1020100005D011F8016B05F8016B401EF9D1A34200
:102020000ED013F8016B16F0030104BF13F8011B67
:10203000C91C30090F28DAD113F8010B0F30D6E78D
:10204000F0BC02F10C007047F8B504000D0016005A
:102050001F003B009BB232002900C9B2200001F0F2
:10206000E4FB002801D0002000E00120F2BDF8B51B
:1020700004000D0016001F003B009BB23200290037
:10208000C9B2200001F0C3FB002801D0002000E00D
:102090000120F2BD38B504000D0001232A000F21F4
:1020A0002000FFF7D1FF002801D1002004E02878AC
:1020B000287028782870012032BD38B504000D0042
:1020C00001236A4612212000FFF7BEFF002801D13C
:1020D000002015E09DF8000010F0BF008DF8000012
:1020E0009DF8000028438DF8000001236A46122164
:1020F0002000FFF7BCFF002801D1002000E00120F4
:1021000032BD38B504000D0001236A4610212000BD
:10211000FFF79AFF002801D1002015E09DF800008C
:1021200010F0F3008DF800009DF8000028438DF8B2
:10213000000001236A4610212000FFF798FF0028C5
:1021400001D1002000E0012032BD38B504000D00AF
:1021500001232A0010212000FFF776FF002801D17B
:10216000002004E0287810F00C002870012032BD17
:102170002DE9F84304000D00022600275FF0000857
:102180004046C0B203281DDA00208146484631008F
:10219000C0B2C9B2884212D201233800C0B205EBE6
:1021A000000217F12801C9B22000FFF74DFF0028F7
:1021B00001D1002007E07F1C19F10109E6E718F1C1
:1021C0000108DDE70120BDE8F28338B504000D0009
:1021D00001236A4610212000FFF736FF002801D1B5
:1021E000002015E09DF8000010F00F008DF80000B1
:1021F0009DF8000028438DF8000001236A46102155
:102200002000FFF734FF002801D1002000E001206A
:1022100032BD38B504000D0001232A001021200032
:10222000FFF712FF002801D1002004E0287810F009
:10223000F0002870012032BD38B504000D000123E4
:102240006A4611212000FFF7FFFE002801D100207F
:1022500015E09DF8000010F0F3008DF800009DF8E7
:10226000000028438DF8000001236A461121200058
:10227000FFF7FDFE002801D1002000E0012032BD63
:1022800038B504000D0001232A0011212000FFF7BA
:10229000DBFE002801D1002004E0287810F00C00BB
:1022A0002870012032BD2DE9F84304000D000226FC
:1022B00000275FF000084046C0B203281DDA002066
:1022C000814648463100C0B2C9B2884212D20123C9
:1022D0003800C0B205EB000217F12201C9B220009C
:1022E000FFF7B2FE002801D1002007E07F1C19F1A2
:1022F0000109E6E718F10108DDE70120BDE8F283F6
:1023000038B504000D0001236A4611212000FFF7B3
:102310009BFE002801D1002015E09DF8000010F080
:102320000F008DF800009DF8000028438DF8000094
:1023300001236A4611212000FFF799FE002801D1F0
:10234000002000E0012032BD38B504000D0001235B
:102350002A0011212000FFF777FE002801D100207C
:1023600004E0287810F0F0002870012032BD38B564
:1023700004000D0001236A4611212000FFF764FECE
:10238000002801D1002015E09DF8000010F0FD00AC
:102390008DF800009DF8000028438DF8000001230F
:1023A0006A4611212000FFF762FE002801D10020BB
:1023B00000E0012032BD38B504000D0001232A00E1
:1023C00011212000FFF740FE002801D1002004E089
:1023D000287810F002002870012032BD38B50400C2
:1023E0000D0001236A4601212000FFF72DFE002881
:1023F00001D1002015E09DF8000010F07F008DF85D
:1024000000009DF8000028438DF8000001236A4673
:1024100001212000FFF72BFE002801D1002000E061
:10242000012032BDF8B504000D002F002E00B6B219
:10243000360A01236A4606212000FFF705FE002820
:1024400001D1002033E000208DF800009DF800004D
:1024500038438DF8000001236A4606212000FFF76B
:1024600006FE002801D1002021E016F00706012316
:102470006A4607212000FFF7E7FD002801D1002070
:1024800015E09DF8000010F0F8008DF800009DF8B0
:10249000000030438DF8000001236A460721200028
:1024A000FFF7E5FD002801D1002000E00120F2BD8A
:1024B00038B504000D0001236A4608212000FFF70B
:1024C000C3FD002801D1002015E09DF8000010F0A8
:1024D000F8008DF800009DF8000028438DF80000FA
:1024E00001236A4608212000FFF7C1FD002801D121
:1024F000002000E0012032BD38B504000D000123AA
:102500006A4609212000FFF79FFD002801D1002025
:1025100015E09DF8000010F07F008DF800009DF898
:10252000000028438DF8000001236A46092120009D
:10253000FFF79DFD002801D1002000E0012032BD01
:1025400038B504000D0001236A460A212000FFF778
:102550007BFD002801D1002015E09DF8000010F05F
:10256000F8008DF800009DF8000028438DF8000069
:1025700001236A460A212000FFF779FD002801D1D6
:10258000002000E0012032BD38B504000D00012319
:102590006A460A212000FFF757FD002801D10020DC
:1025A00015E09DF8000010F087008DF800009DF800
:1025B000000028438DF8000001236A460A2120000C
:1025C000FFF755FD002801D1002000E0012032BDB9
:1025D00038B504000D0001236A460D212000FFF7E5
:1025E00033FD002801D1002015E09DF8000010F017
:1025F000DF008DF800009DF8000028438DF80000F2
:1026000001236A460D212000FFF731FD002801D18A
:10261000002000E0012032BD38B504000D00012388
:102620006A460D212000FFF70FFD002801D1002090
:1026300015E09DF8000010F07F008DF800009DF877
:10264000000028438DF8000001236A460D21200078
:10265000FFF70DFD002801D1002000E0012032BD70
:1026600038B504000D0001236A4612212000FFF74F
:10267000EBFC002801D1002015E09DF8000010F0CF
:10268000FB008DF800009DF8000028438DF8000045
:1026900001236A4612212000FFF7E9FC002801D13E
:1026A000002000E0012032BD38B504000D000123F8
:1026B0006A4613212000FFF7C7FC002801D1002043
:1026C00015E09DF8000010F0FB008DF800009DF86B
:1026D000000028438DF8000001236A4613212000E2
:1026E000FFF7C5FC002801D1002000E0012032BD29
:1026F00038B504000D0001236A4614212000FFF7BD
:10270000A3FC002801D1002015E09DF8000010F086
:10271000FC008DF800009DF8000028438DF80000B3
:1027200001236A4614212000FFF7A1FC002801D1F3
:10273000002000E0012032BD38B504000D00012367
:102740006A4615212000FFF77FFC002801D10020F8
:1027500015E09DF8000010F0FC008DF800009DF8D9
:10276000000028438DF8000001236A46152120004F
:10277000FFF77DFC002801D1002000E0012032BDE0
:1027800038B504000D0001236A4617212000FFF729
:102790005BFC002801D1002015E09DF8000010F03E
:1027A0007F008DF800009DF8000028438DF80000A0
:1027B00001236A4617212000FFF759FC002801D1A8
:1027C000002000E0012032BD38B504000D000123D7
:1027D0006A4617212000FFF737FC002801D10020AE
:1027E00015E09DF8000010F09F008DF800009DF8A6
:1027F000000028438DF8000001236A4617212000BD
:10280000FFF735FC002801D1002000E0012032BD97
:1028100038B504000D0001236A4617212000FFF798
:1028200013FC002801D1002015E09DF8000010F0F5
:102830007F008DF800009DF8000028438DF800000F
:1028400001236A4617212000FFF711FC002801D15F
:10285000002000E0012032BD38B504000D00012346
:102860006A4619212000FFF7EFFB002801D1002064
:1028700015E09DF8000010F0FD008DF800009DF8B7
:10288000000028438DF8000001236A46192120002A
:10289000FFF7EDFB002801D1002000E0012032BD50
:1028A00038B504000D0001236A4619212000FFF706
:1028B000CBFB002801D1002015E09DF8000010F0AE
:1028C000F7008DF800009DF8000028438DF8000007
:1028D00001236A4619212000FFF7C9FB002801D116
:1028E000002000E0012032BD38B504000D000123B6
:1028F0006A4619212000FFF7A7FB002801D100201C
:1029000015E09DF8000010F0EF008DF800009DF834
:10291000000028438DF8000001236A461921200099
:10292000FFF7A5FB002801D1002000E0012032BD07
:1029300038B504000D0001236A4619212000FFF775
:1029400083FB002801D1002015E09DF8000010F065
:10295000FB008DF800009DF8000028438DF8000072
:1029600001236A4619212000FFF781FB002801D1CD
:10297000002000E0012032BD38B504000D00012325
:102980002A001B212000FFF75FFB002801D1002057
:1029900004E0287810F008002870012032BD38B516
:1029A00004000D0001232A001B212000FFF74CFB2F
:1029B000002801D1002004E0287810F020002870C1
:1029C000012032BD38B504000D0001232A001C216E
:1029D0002000FFF739FB002801D1002004E028780F
:1029E00010F010002870012032BD38B504000D0031
:1029F00001232A001C212000FFF726FB002801D11B
:102A0000002004E0287810F020002870012032BD5A
:102A100038B504000D0001232A001D212000FFF716
:102A200013FB002801D1002004E0287810F00100F9
:102A30002870012032BD38B504000D0001232A00A2
:102A40001D212000FFF700FB002801D1002004E039
:102A5000287810F002002870012032BD38B504003B
:102A60000D0001232A001D212000FFF7EDFA0028A8
:102A700001D1002004E0287810F004002870012023
:102A800032BD38B504000D0001232A001D212000AD
:102A9000FFF7DAFA002801D1002004E0287810F0CE
:102AA00008002870012032BD38B504000D00012354
:102AB0002A001D212000FFF7C7FA002801D10020BD
:102AC00004E0287810F010002870012032BD38B5DD
:102AD00004000D0001232A001D212000FFF7B4FA95
:102AE000002801D1002004E0287810F02000287090
:102AF000012032BD38B504000D0001232A001D213C
:102B00002000FFF7A1FA002801D1002004E0287876
:102B100010F040002870012032BD38B504000D00CF
:102B200001232A001E212000FFF78EFA002801D180
:102B3000002004E0287810F001002870012032BD48
:102B400038B504000D0001232A001E212000FFF7E4
:102B50007BFA002801D1002004E0287810F0020060
:102B60002870012032BD38B504000D0001236A46EB
:102B70003A212000FFF768FA002801D1002018E070
:102B800001230DF101023B212000FFF75DFA00282F
:102B900001D100200DE09DF8010010F00F008DF82C
:102BA00001009DF801009DF8001051EA00212980E4
:102BB000012032BD38B504000D0001232A003B215D
:102BC0002000FFF741FA002801D1002004E0287816
:102BD00010F010002870012032BD38B504000D003F
:102BE00001232A003B212000FFF72EFA002801D103
:102BF000002004E0287810F020002870012032BD69
:102C000038B504000D0001232A003B212000FFF706
:102C10001BFA002801D1002004E0287810F04000C1
:102C20002870012032BD38B504000D0001236A462A
:102C30003C212000FFF708FA002801D1002018E00D
:102C400001230DF101023D212000FFF7FDF90028CD
:102C500001D100200DE09DF8010010F003008DF877
:102C600001009DF801009DF8001051EA0021298023
:102C7000012032BD38B504000D0001232A00532184
:102C80002000FFF7E1F9002801D1002004E02878B6
:102C900010F010002870012032BD38B504000D007E
:102CA00001232A0053212000FFF7CEF9002801D18B
:102CB000002004E0287810F020002870012032BDA8
:102CC00038B504000D0001236A4658212000FFF7A3
:102CD000BBF9002801D1002015E09DF8000010F09C
:102CE000FE008DF800009DF8000028438DF80000DC
:102CF00001236A4658212000FFF7B9F9002801D1C5
:102D0000002000E0012032BD38B504000D00012391
:102D10006A4658212000FFF797F9002801D10020CA
:102D200015E09DF8000010F0FD008DF800009DF802
:102D3000000028438DF8000001236A465821200036
:102D4000FFF795F9002801D1002000E0012032BDF5
:102D500038B504000D0001236A4658212000FFF712
:102D600073F9002801D1002015E09DF8000010F053
:102D7000FB008DF800009DF8000028438DF800004E
:102D800001236A4658212000FFF771F9002801D17C
:102D9000002000E0012032BD38B504000D00012301
:102DA0006A4658212000FFF74FF9002801D1002082
:102DB00015E09DF8000010F0F7008DF800009DF878
:102DC000000028438DF8000001236A4658212000A6
:102DD000FFF74DF9002801D1002000E0012032BDAD
:102DE00038B504000D0001236A4658212000FFF782
:102DF0002BF9002801D1002015E09DF8000010F00B
:102E00007F008DF800009DF8000028438DF8000039
:102E100001236A4658212000FFF729F9002801D133
:102E2000002000E0012032BD38B504000D0015F08F
:102E30001F0501236A4659212000FFF705F90028E4
:102E400001D1002015E09DF8000010F0E0008DF8A1
:102E500000009DF8000028438DF8000001236A4619
:102E600059212000FFF703F9002801D1002000E0DC
:102E7000012032BD38B504000D0001236A465921F6
:102E80002000FFF7E1F8002801D1002015E09DF8AF
:102E9000000010F09F008DF800009DF8000028430E
:102EA0008DF8000001236A4659212000FFF7DFF862
:102EB000002801D1002000E0012032BD38B5040017
:102EC0000D0015F0030501236A465A212000FFF783
:102ED000BBF8002801D1002015E09DF8000010F09B
:102EE000FC008DF800009DF8000028438DF80000DC
:102EF00001236A465A212000FFF7B9F8002801D1C2
:102F0000002000E0012032BD38B504000D00AD0006
:102F100015F00C0501236A465A212000FFF794F8AA
:102F2000002801D1002015E09DF8000010F0F3000A
:102F30008DF800009DF8000028438DF80000012363
:102F40006A465A212000FFF792F8002801D100209C
:102F500000E0012032BD38B504000D002D0115F050
:102F6000F00501236A465A212000FFF76DF800287A
:102F700001D1002015E09DF8000010F00F008DF841
:102F800000009DF8000028438DF8000001236A46E8
:102F90005A212000FFF76BF8002801D1002000E043
:102FA000012032BD38B504000D0015F03F050123A6
:102FB0006A465B212000FFF747F8002801D1002076
:102FC00015E09DF8000010F0C0008DF800009DF89D
:102FD000000028438DF8000001236A465B21200091
:102FE000FFF745F8002801D1002000E0012032BDA4
:102FF00038B504000D0001236A465B212000FFF76D
:1030000023F8002801D1002015E09DF8000010F001
:103010007F008DF800009DF8000028438DF8000027
:1030200001236A465B212000FFF721F8002801D127
:10303000002000E0012032BD38B504000D0015F07D
:103040000F0501236A465C212000FEF7FDFF0028E2
:1030500001D1002015E09DF8000010F0F0008DF87F
:1030600000009DF8000028438DF8000001236A4607
:103070005C212000FEF7FBFF002801D1002000E0CA
:10308000012032BD38B504000D0001236A465C21E1
:103090002000FEF7D9FF002801D1002015E09DF89F
:1030A000000010F0EF008DF800009DF800002843AC
:1030B0008DF8000001236A465C212000FEF7D7FF4F
:1030C000002801D1002000E0012032BD38B5040005
:1030D0000D006D0115F0600501236A465C2120009A
:1030E000FEF7B2FF002801D1002015E09DF8000096
:1030F00010F09F008DF800009DF8000028438DF827
:10310000000001236A465C212000FEF7B0FF002882
:1031100001D1002000E0012032BD38B504000D00CF
:1031200001236A465D212000FEF78EFF002801D1B1
:10313000002015E09DF8000010F0F8008DF8000068
:103140009DF8000028438DF8000001236A465D21A8
:103150002000FEF78CFF002801D1002000E00120B4
:1031600032BDF8B504000D0015F01F07C5F3401679
:10317000FF0017F0F80701236A465D212000FEF7E3
:1031800063FF002801D1002037E09DF8000010F017
:1031900007008DF800009DF8000038438DF800000E
:1031A00001236A465D212000FEF761FF002801D15E
:1031B000002022E0F60116F0800601236A465C2119
:1031C0002000FEF741FF002801D1002015E09DF806
:1031D000000010F07F008DF800009DF800003043E3
:1031E0008DF8000001236A465C212000FEF73FFFB6
:1031F000002801D1002000E00120F2BD38B5040014
:103200000D0001236A465E212000FEF71DFF002805
:1032100001D1002015E09DF8000010F0FD008DF8B0
:1032200000009DF8000028438DF8000001236A4645
:103230005E212000FEF71BFF002801D1002000E0E6
:10324000012032BD38B504000D0001236A465E211D
:103250002000FEF7F9FE002801D1002015E09DF8BE
:10326000000010F0FB008DF800009DF800002843DE
:103270008DF8000001236A465E212000FEF7F7FE6C
:10328000002801D1002000E0012032BD38B5040043
:103290000D0001236A465E212000FEF7D5FE0028BE
:1032A00001D1002015E09DF8000010F0F7008DF826
:1032B00000009DF8000028438DF8000001236A46B5
:1032C0005E212000FEF7D3FE002801D1002000E09F
:1032D000012032BD38B504000D0001236A465E218D
:1032E0002000FEF7B1FE002801D1002015E09DF876
:1032F000000010F0EF008DF800009DF8000028435A
:103300008DF8000001236A465E212000FEF7AFFE23
:10331000002801D1002000E0012032BD38B50400B2
:103320000D0001236A465E212000FEF78DFE002875
:1033300001D1002015E09DF8000010F0DF008DF8AD
:1033400000009DF8000028438DF8000001236A4624
:103350005E212000FEF78BFE002801D1002000E056
:10336000012032BD38B504000D0001236A465E21FC
:103370002000FEF769FE002801D1002015E09DF82D
:10338000000010F0BF008DF800009DF800002843F9
:103390008DF8000001236A465E212000FEF767FEDB
:1033A000002801D1002000E0012032BD2DE9F843C2
:1033B00004000D00022600275FF000084046C0B25E
:1033C00000281DD10020814648463100C0B2C9B254
:1033D000884212D201233800C0B205EB000217F177
:1033E0003E01C9B22000FEF72FFE002801D10020C7
:1033F00007E07F1C19F10109E6E718F10108DDE794
:103400000120BDE8F2832DE9F84304000D000226F7
:1034100000275FF000084046C0B200281DD1002000
:10342000814648463100C0B2C9B2884212D2012357
:103430003800C0B205EB000217F14B01C9B2200001
:10344000FEF702FE002801D1002007E07F1C19F1E1
:103450000109E6E718F10108DDE70120BDE8F28384
:1034600038B504000D0080212000FEF7B7FF0123CE
:103470006A460F212000FEF7E7FD9DF8000010F0DE
:10348000E0008DF800009DF8001015F01F000143CA
:103490008DF8001001236A460F212000FEF7E7FD9A
:1034A00000212000FEF79AFF012032BD10B586B042
:1034B00004002000C0B200280CD100200090DFF8EA
:1034C0002405016851F002010160006810F002005B
:1034D000009000982000C0B201280CD1002000907C
:1034E000DFF80005016851F002010160006810F08A
:1034F000020000900098DFF8F0042100C9B250F8F3
:1035000021000190012002900020039002200490ED
:1035100001A9DFF8D8042200D2B250F8220000F04E
:1035200071FB06B010BD10B504000022DFF8B8042E
:103530002100C9B250F8211089B2DFF8B00423008D
:10354000DBB250F8230000F060FC10BD10B50400A1
:103550000122DFF894042100C9B250F8211089B289
:10356000DFF888042300DBB250F8230000F04DFCA4
:1035700010BD10B50400DFF870042100C9B250F886
:10358000211089B2DFF864042200D2B250F8220080
:1035900000F048FC10BD70B586B0DFF85444200040
:1035A00000F050FE00285CD100200090DFF84404B9
:1035B000016851F480410160006810F4804000907F
:1035C000009800200090DFF81C04016851F002010F
:1035D0000160006810F00200009000984FF4004570
:1035E0000195022002900020039003200490052002
:1035F0000590DFF8046401A9300000F003FB4FF4EC
:10360000005001900020039001A9300000F0FAFA68
:10361000DFF8E80320604FF482706060A56000204E
:10362000E06002202061012060614FF40070A06121
:103630001820E06100202062002060620020A0626B
:103640000720E062200000F01BFC2068006850F4B6
:103650008040216808602068006850F040002168C0
:103660000860002006B070BDF8B586B0DFF8907332
:1036700001224FF48071380000F0C7FBDFF884436B
:1036800001224FF40051200000F0BFFBDFF8685327
:1036900001224FF48051280000F0B7FB0320049072
:1036A000002003900120029000200090CD4E306851
:1036B00050F001003060306810F001000090009878
:1036C0004FF48070019001A9380000F09BFA0122AC
:1036D0004FF48071380000F098FB002000903068B3
:1036E00050F002003060306810F002000090009846
:1036F0004FF48050019001A9280000F083FA0122C4
:103700004FF48051280000F080FB002000903068CA
:1037100050F004003060306810F004000090009811
:103720004FF40050019001A9200000F06BFA012233
:103730004FF40051200000F068FB002007B0F0BDFE
:1037400070B586B00400250003200490002003908B
:1037500001200290E878002803D0022837D01BD33C
:1037600050E0002000909F48016851F00101016085
:10377000006810F00100009000984FF480700190F4
:103780009F4E01224FF48071300000F03EFB01A9F2
:10379000300000F037FA37E00020009091480168CF
:1037A00051F002010160006810F0020000900098E2
:1037B0004FF480500190904E01224FF48051300020
:1037C00000F023FB01A9300000F01CFA1CE00020EF
:1037D00000908448016851F004010160006810F015
:1037E0000400009000984FF400500190854E012293
:1037F0004FF40051300000F008FB01A9300000F048
:1038000001FA01E0032000E0002006B070BDF8B529
:1038100004000D0016001F003B009BB2320029007F
:10382000C9B2200000F030F8F2BD2DE9F0410400EB
:10383000884615001E0027007878002808D130003F
:1038400080B2022804DB3878BC2801D158F0800807
:103850007878012815D1300080B2022808DB38784A
:10386000332802D0402803D002E058F04008FFE798
:1038700033009BB22A004146C9B2200000F02CF868
:1038800000E00120BDE8F0812DE9F84304000D00BF
:1038900016001F00200000F065F8DFF854812900B1
:1038A000C9B2404600F080F95FF000094846C0B256
:1038B000390080B289B2884208D24846C0B2315C31
:1038C000404600F071F919F10109EFE7200000F01E
:1038D00069F80020BDE8F2832DE9F04104000D00F5
:1038E00016001F00200000F03DF8DFF8048155F0BD
:1038F0008001C9B2404600F057F9D8F800000068CE
:1039000030F04000D8F800100860D8F800000068D7
:1039100030F48040D8F800100860380080B20228E7
:1039200006D33A0092B23100404600F00FF903E0AE
:103930003100404600F06AF8200000F033F8D8F873
:103940000000006850F48040D8F800100860D8F8F3
:103950000000006850F04000D8F800100860002017
:10396000BDE8F08138B504002500E878002803D0D0
:1039700002280FD007D313E000224FF480712048B3
:1039800000F043FA0CE000224FF480511A4800F096
:103990003CFA05E000224FF400511A4800F035FAD5
:1039A000002032BD38B504002500E878002803D097
:1039B00002280FD007D313E001224FF48071104882
:1039C00000F023FA0CE001224FF480510A4800F085
:1039D0001CFA05E001224FF400510A4800F015FAE4
:1039E000002032BD30380240EC2401088C02002057
:1039F000C00B002040380240000402400038004064
:103A000000000240000802400020704772B60268C1
:103A1000126852F0400203681A60BFF34F8FBFF381
:103A20004F8FBFF34F8FBFF34F8FBFF34F8FBFF356
:103A30004F8FBFF34F8FBFF34F8FBFF34F8FBFF346
:103A40004F8FBFF34F8FBFF34F8FBFF34F8FBFF336
:103A50004F8FBFF34F8FBFF34F8FBFF34F8FBFF326
:103A60004F8FBFF34F8FBFF34F8FBFF34F8FBFF316
:103A70004F8FBFF34F8FBFF34F8FBFF34F8FBFF306
:103A80004F8FBFF34F8FBFF34F8FBFF34F8FBFF3F6
:103A90004F8FBFF34F8FBFF34F8FBFF34F8FBFF3E6
:103AA0004F8FBFF34F8FBFF34F8FBFF34F8FBFF3D6
:103AB0004F8FBFF34F8FBFF34F8FBFF34F8FBFF3C6
:103AC0004F8FBFF34F8FBFF34F8FBFF34F8FBFF3B6
:103AD0004F8FBFF34F8FBFF34F8FBFF34F8FBFF3A6
:103AE0004F8FBFF34F8FBFF34F8FBFF34F8FBFF396
:103AF0004F8FBFF34F8FBFF34F8FBFF34F8FBFF386
:103B00004F8FBFF34F8FBFF34F8FBFF34F8FBFF375
:103B10004F8FBFF34F8FBFF34F8FBFF34F8FBFF365
:103B20004F8FBFF34F8F0268126832F04002036874
:103B30001A6062B602689268D207FBD50268127BEF
:103B40000A70026892681206FBD4704710B472B60D
:103B500003681B6853F040030468236013009BB2A2
:103B6000022B09D303689B68DB07F7D503681B7B2F
:103B70000B70491C521EF1E7BFF34F8FBFF34F8FFD
:103B800003681B6833F040030468236062B603686F
:103B90009B68DB07FBD503681B7B0B7003689B6886
:103BA0001B06FBD410BC7047026892689207FBD5D5
:103BB00002681173026892689207FBD502689268E6
:103BC0001206FBD470470020704730B4002513E084
:103BD00050F8042BD30744BFA9F101039A18091F19
:103BE000042942F8045BFAD213468C0744BF1580BF
:103BF0009B1CC90748BF1D7050F8041B0029E7D162
:103C000030BC70472DE9F841002300240026002530
:103C1000102D80F0ED80012717FA05F213000A68D5
:103C20001A4014009C4240F0E1804A68022A02D007
:103C30004A68122A1FD12A00D20800EB8202D2F869
:103C400020C05FF00F0E15F00702D2B292001EFAEC
:103C500002FE3CEA0E0CD1F810E015F00702D2B2D9
:103C600092001EFA02FE5EEA0C0C66462A00D2089A
:103C700000EB82021662D0F800C05FF0030E2A004B
:103C8000D2B252001EFA02F23CEA020C91F8048011
:103C900018F003082A00D2B2520018FA02F858EAC3
:103CA0000C0CC0F800C04A68012A08D04A68022AF1
:103CB00005D04A68112A02D04A68122A1BD18668A8
:103CC0002A00D2B252001EFA02F29643D1F80C80BA
:103CD0002A00D2B2520018FA02F858EA06068660A4
:103CE0004268AF40BA434F68C7F30017AF403A434A
:103CF0009446C0F804C0C6682A00D2B252001EFA28
:103D000002FE36EA0E068F682A00D2B252009740B1
:103D10003E43C6604A68D20068D5002200924C4AF1
:103D2000176857F480471760126812F480420092B7
:103D3000009ADFF820C12A0092085CF822705FF038
:103D40000F0E15F00302D2B292001EFA02FE37EAFD
:103D50000E07414A904201D1002614E03F4A9042AA
:103D600001D101260FE03E4A904201D102260AE02D
:103D70003C4A904201D1032605E03B4A904201D1E2
:103D8000042600E00726F6B215F00302D2B2920034
:103D9000964037432A0092084CF82270334E32681E
:103DA000A243D1F804C05FEACC3C00D52243326084
:103DB0002F4F3E68A643D1F804C05FEA8C3C00D583
:103DC00026433E602B4F3A68A243D1F804C05FEA15
:103DD000CC2C00D522433A60274F3E68A643D1F849
:103DE00004C05FEA8C2C00D526433E606D1C0FE7B3
:103DF000BDE8F181020010690B009BB2184201D0AE
:103E0000012000E00020C0B270471300DBB2002B9D
:103E100003D00B009BB2836103E00B009BB21B0439
:103E20008361704743690A0092B25340436170470F
:103E300010B5040011480168220092B2114206D068
:103E4000210089B20160200080B200F071FA10BD3B
:103E5000443802400838014000000240000402409B
:103E600000080240000C024000100240003C0140EB
:103E7000043C0140083C01400C3C0140143C014022
:103E800010B50400002C01D101203FE0606A002839
:103E90000020A06294F85100002805D1002084F889
:103EA0005000200000F012FC022084F8510020682D
:103EB000006830F04000216808606168A068014334
:103EC000E06801432069014360690143A06910F47F
:103ED00000700143E0690143206A0143A06A014385
:103EE00020680160A169090C11F00401606A0143B6
:103EF000206841602068C06930F400602168C861B2
:103F000000206065012084F85100002010BD2DE9DB
:103F1000FE4F07000E0015009846DDF83090002097
:103F20000190002002900020009001245FF0000A20
:103F300097F85000012801D10220F9E0012087F80C
:103F4000500000F0FFFC834697F85100019078681C
:103F50000290019801280CD00298B0F5827F05D11B
:103F6000B868002802D10198042802D002208246B5
:103F7000D6E0002E05D0002D03D0404680B20028A8
:103F800002D101208246CBE097F85100012802D1EE
:103F9000052087F8510000207865BD63A7F83E80B2
:103FA000A7F83C803E63A7F83680A7F8348000204D
:103FB00038640020786438680068400605D43868A2
:103FC000006850F0400039680860F868B0F5006F8C
:103FD00040D17868002802D0F88E012806D13088B8
:103FE0003968C860B61CF88E401EF886F88E002826
:103FF00002D1F88F00286ED0002C0FD0F88E002848
:104000000CD038688068800708D530883968C86067
:10401000B61CF88E401EF88600200400F88F002899
:104020000CD038688068C00708D53868C068288018
:10403000AD1CF88F401EF8870120040019F1010F14
:10404000D4D000F07FFCB0EB0B004845CED303206A
:10405000824665E07868002802D0F88E012806D1F3
:10406000307839680873761CF88E401EF886F88E12
:10407000002802D1F88F00282DD0002C0FD0F88E08
:1040800000280CD038688068800708D530783968F7
:104090000873761CF88E401EF88600200400F88F06
:1040A00000280CD038688068C00708D53868C06818
:1040B00028706D1CF88F401EF8870120040019F14C
:1040C000010FD4D000F03EFCB0EB0B004845CED33E
:1040D0000320824624E0CDF800B04B4601220221A5
:1040E000380000F0BFF8002802D00320824617E015
:1040F0005A464946380000F006F9002804D001204D
:104100008246202078650BE0B868002808D100209E
:1041100000903868C0680090386880680090009807
:10412000012087F85100002087F850005046C0B2A7
:10413000BDE8FE8F7CB5040020684568206886686D
:1041400016F04100012805D1680603D52000216C36
:10415000884776E0B00705D5280603D52000616CB6
:1041600088476EE016F4B07F6BD0A80669D570065C
:104170001BD594F8510003280DD0606D50F0040059
:104180006065002000902068C0680090206880680A
:104190000090009809E0002000902068C06800901E
:1041A00020688068009000984BE0B0060FD5606DE5
:1041B00050F0010060650020009020688068009049
:1041C0002068006830F04000216808600098F00521
:1041D00009D5606D50F008006065002000902068EF
:1041E000806800900098606D002829D020684068A1
:1041F00030F0E00021684860012084F8510015F09B
:10420000030F1AD020684068800880002168486049
:10421000E06C002806D00FF23500E16C0865E06C18
:1042200000F096FBA06C00280AD00FF22100A16CD0
:104230000865A06C00F08CFB02E0200000F09CFB05
:10424000FFE773BD90F851007047000038B50400D7
:10425000A56B0020E8870020E886280000F08CFB92
:1042600031BD00002DE9F04105000E0017001C00D3
:10427000DDF81880286880683040B04201D1012004
:1042800000E00020B8423BD014F1010FF2D0002C26
:1042900005D000F057FBB0EB0800A042EAD3286835
:1042A000406830F0E000296848606868B0F5827FB7
:1042B0000DD1A868B0F5004F03D0A868B0F5806FA5
:1042C00005D12868006830F0400029680860A86AB5
:1042D000B0F5005F0CD1286801684DF6FF70014011
:1042E000286801602868006850F400502968086058
:1042F000012085F85100002085F85000032000E0DF
:104300000020BDE8F0817CB504000D001600009689
:104310002B00002280212000FFF7A4FF002805D0F9
:10432000606D50F020006065032000E0002076BD45
:1043300010B50400200080B2102804D100F085FBE5
:104340000120C249086010BDFEB504000D00160032
:104350001F00642101A800F0A5FD3800C0B2009044
:1043600030000300DBB22A002100B94800F0AFF8AA
:10437000002804D001A800F09DFD0028EDD0F7BD75
:1043800080B5B348B34901604FF4827141600021A8
:1043900081600021C16000210161002141614FF471
:1043A0000071816100210162002141620721C16227
:1043B0001821C16100218162FFF762FD01BD10B5C6
:1043C000A54C002204212000FFF71FFD052000F06E
:1043D00080FD012204212000FFF717FD052000F0D9
:1043E00078FD10BD80B510219C48FFF703FD012822
:1043F00001D1012000E0002002BD2DE9F84386B084
:1044000004000D0016005FF00008FF208DF8040086
:1044100004A89349D1E90023C0E90023DFF83892CA
:10442000002201214846FFF7F0FC0F2000900523F1
:1044300002AA04A92000FFF76AFD9DF808000228DF
:1044400030D19DF80C009DF80B1051EA00210F00AF
:10445000380080B2002825D03000C0B2390080B2C8
:1044600089B2884202D23000C0B2070000208046E4
:104470004046C0B2390080B289B2884212D272B6C8
:104480000F20009001230DF1050201A92000FFF784
:104490003EFD62B69DF805004146C9B2685418F168
:1044A0000108E5E7012201214846FFF7AEFC0020A4
:1044B00000900098022804DA00BF0098401C009089
:1044C000F7E75FFA88F8404607B0BDE8F0832DE9CA
:1044D000F04FC5B083460E00170098464E9D5FF022
:1044E0000009002403A85F49D1E90023C0E90023A3
:1044F00001A85D49D1E90023C0E9002300F09CF840
:10450000002C03D000F056F800F083F8DFF848A143
:10451000002201215046FFF778FC72B60F20009070
:10452000052301AA03A95846FFF7F1FC62B6002C47
:1045300001D000F055F89DF8040002282CD19DF818
:1045400005002900C9B251FA88F1884220DB4046B3
:10455000C0B200280BD072B60F2000904346DBB2E9
:104560009BB205AA31005846FFF7D1FC62B628007D
:10457000C0B2002813D072B60F2000902B00DBB21F
:104580009BB205AA39005846FFF7C1FC62B606E0A7
:104590007FF00100814602E05FF0FF30814601229A
:1045A00001215046FFF731FC00F041F8484645B084
:1045B000BDE8F08F18B585B0102000900120019063
:1045C0000320039000200290244C69462000FFF74E
:1045D00019FB012210212000FFF717FC06B010BDC7
:1045E00018B585B01020009020480190022002905C
:1045F0000320039000200490184C69462000FFF728
:1046000001FB0020029069462000FFF7FBFA06B08C
:1046100010BD81B0002000900098B0F5866F04DADC
:1046200000BF0098401C0090F6E701B0704780B5CD
:104630000A2000F0F2FC01BD80B50A2000F0F4FC75
:1046400001BD10200A49086070470000A812002030
:10465000680B0020003001400004024000000240CE
:10466000D4240108DC240108E4240108000011100E
:10467000143C014080B5032000F0B4FC002200216E
:104680005FF0FF3000F0B4FC01BD10B586B004004F
:104690002068DFF88412884216D100200090DFF8ED
:1046A0007C02016851F480710160006810F4807030
:1046B00000900098022001900320029000200390B7
:1046C00001A99748FFF79EFA06B010BD70B586B0F5
:1046D000040020689349884240F08C8000200590B7
:1046E0009148016851F002010160016811F0020176
:1046F0000591059900210591016851F001010160C2
:10470000006810F00100059005980020059083488E
:10471000016851F480510160006810F480500590E8
:1047200005980420009001200190012002900020B3
:104730000390002004907A4D69462800FFF762FA42
:10474000002204212800FFF760FB202000900220B7
:104750000190022002900320039005200490734EE4
:1047600069463000FFF74EFA402000900220019089
:104770000020029003200390052004906946300039
:10478000FFF740FA80200090022001900020029064
:10479000032003900520049069463000FFF732FAA9
:1047A000012000900120019001200290032003903D
:1047B0000020049069462800FFF724FA0122012115
:1047C0002800FFF722FB102000905948019000209C
:1047D0000290032003900020049069463000FFF708
:1047E00011FA002203210A2000F002FC0A2000F046
:1047F00014FCFFE706B070BD10B586B00400206859
:10480000B0F1804F22D1002000904A48016851F059
:1048100001010160006810F00100009000980F2075
:1048200001900220029002200390022004900120B7
:10483000059001A93D48FFF7E5F9002202211C205F
:1048400000F0D6FB1C2000F0E8FB37E020683A4976
:1048500088421BD1002000903648016851F00401C5
:104860000160006810F00400009000984FF4707030
:10487000019002200290002003900020049002206A
:10488000059001A92648FFF7BDF917E020682B49DC
:10489000884213D1002000902048016851F48031F3
:1048A0000160006810F4803000900098002203211D
:1048B000182000F09DFB182000F0AFFB06B010BDE3
:1048C00010B586B0040020681D49884222D100201E
:1048D00000901248016851F010010160006810F06A
:1048E0001000009000984FF4C060019002200290E8
:1048F00001200390032004900720059001A90B4894
:10490000FFF780F900220421252000F071FB25200B
:1049100000F083FB06B010BD002001404438024087
:1049200000040240003001403038024000000240E4
:1049300000001110403802400008004000400140D3
:104940000010014001480068704700BF2C13002090
:10495000010091F83500022803D08020486501202D
:1049600009E0052081F8350008680068400840002B
:104970000A6810600020704770478268521C82608D
:10498000426832B10268531C036011704168491ECD
:104990004160704738B5DFF89853280000F076FB87
:1049A000DFF8900300F072FB00242000C0B205285D
:1049B0000BDADFF884132200D2B28C204243114478
:1049C000280000F080FB641CEFE731BD010011F10D
:1049D00008021078042801D0012008E0907891F8AE
:1049E0008830DB1E984201D0022000E00020704792
:1049F00038B500200090FFF71FFECE4D280000F0D4
:104A000048FB04002000C0B2002814D169462800E9
:104A100000F071FBFFF70BFE0098083001F059FC25
:104A2000FFF70AFE0099C24800F04DFB280000F095
:104A300030FB0400E6E700F008F8FFF7F8FD31BDB1
:104A400080B5BC4800F025FB02BD38B500200090C1
:104A5000FFF7F7FDFFF7C6FC002831D0B44D280062
:104A600000F017FB002828D16946280000F043FB1E
:104A70008022009810F10801B048FFF7BEFC040046
:104A80002000C0B2002811D0009880F8884000981B
:104A9000FFF79CFF002804D10099A64800F013FB03
:104AA00008E00099280000F002FB03E000992800CC
:104AB00000F0FDFAFFF7C5FDCCE7FFF7C2FDFFE709
:104AC00031BDF8B504000D0016001F003B00DBB23D
:104AD0003200D2B229002000FFF736FCF1BDFEB54E
:104AE00004000D0016001F00A805800D50EA842068
:104AF000ADF804008DF8066001208DF80000032257
:104B000001A90DF1010001F082FC3300DBB20422A7
:104B100039006846FFF7D5FFF7BD38B504000D0032
:104B2000280000F0B6FA002808D16946280000F0F5
:104B3000F6FA0099200000F0BAFAF1E731BD1CB591
:104B4000FFF77AFD7A4C200000F0FDFA02280ADA1D
:104B50006946784800F0CFFA0099200000F0B3FAD7
:104B6000FFF773FFEEE7FFF762FD13BD2DE9F04F8E
:104B700089B005000E006F88BF05BF0D288857EA71
:104B8000802764240020009005A800F07FFAFFF73A
:104B9000D6FFAB68E8680200D2B269882888FFF7C0
:104BA0009EFF3000C0B2002801D00020BCE0002CE5
:104BB00001D101200400210007A800F073F907A823
:104BC00000F078F9002840F09480FFF739FF0028C2
:104BD000F5D1FFF731FDDFF85C816946404600F012
:104BE0008AFA00980830039003980078042862D16C
:104BF0000398401C049000980B308146009890F870
:104C00008800C01E8246049800780E2823D00F2802
:104C100004D010284ED03E2835D04CE0CDF8089076
:104C200002984088390089B2884262D168680F28AA
:104C300004D00298007800285BD13CE06869824586
:104C400001DA504600E0686968616A694946286986
:104C500001F0DDFB5DE0CB46BBF80100390089B215
:104C6000884246D119F10309BAF1030A68698245FD
:104C700001DA504600E0686968616A694946286956
:104C800001F0C5FB45E0CDF8049001980078696813
:104C9000884210D1BAF1010A6869824501DA5046AA
:104CA00000E0686968616A690198411C286901F03F
:104CB000AEFB2EE01DE0DFF878B0584600F0E9F9D1
:104CC00000280BD0404600F0E4F9002806D00099F7
:104CD000584600F0F8F90020009005E0009905A87A
:104CE00000F0F1F900200090FFF7AFFEFFF79FFC06
:104CF00065E70098002803D000990D4800F0D7F927
:104D000005A90C48FFF709FFFFF791FC5FF0FF30A2
:104D10000AE00099064800F0CAF905A94046FFF7E5
:104D2000FCFEFFF784FC002009B0BDE8F08F000016
:104D3000041200200C1200208C060020680B0020BA
:104D40002DE9F84189B004000D0016001F00DDF8C0
:104D5000408009220021684601F069FB18220021E9
:104D600003A801F064FB0420ADF80C000120ADF8AD
:104D70000E0000200590002006906846079009204C
:104D80000890002103A8FFF7F1FE002801D5FF20BD
:104D900017E09DF80000002802D09DF8000010E008
:104DA0009DF801002070BDF8020028809DF80400E5
:104DB0003070BDF805003880BDF80700A8F8000085
:104DC00000200AB0BDE8F08130B58FB004000D00BE
:104DD0002022002107A801F02AFB8DF81C402000AA
:104DE000C0B2202801DB1F2201E02200D2B229003C
:104DF0000DF11D0001F00BFB1822002101A801F0AC
:104E000016FB0820ADF804000920ADF8060007A83D
:104E10000390202004906846059001200690002110
:104E200001A8FFF7A3FE002801D5FF2001E09DF8AF
:104E300000000FB030BD38B588B004000D0004226A
:104E40000021684601F0F3FA2088ADF8040018222A
:104E5000002102A801F0EBFA0520ADF808000520BA
:104E6000ADF80A0001A8049002200590684606905B
:104E700004200790002102A8FFF778FE002801D542
:104E8000FF200DE09DF80000002802D09DF80000F2
:104E900006E0BDF8010020809DF803002870002086
:104EA00009B030BD38B504000D006560FFF74AFD5C
:104EB000206031BD10B50400FFF744FD2168411AA0
:104EC000491C6068884201D2012000E00020C0B285
:104ED00010BD31B50024FFF735FD0500FFF732FDA9
:104EE000401B00998842F9D331BD0268531C03600E
:104EF0001170704710B410F00703594C22684FF638
:104F0000FF010A40574951EA03210A43226010BCBD
:104F1000704753480068C0F302207047012210F028
:104F20001F018A40504903005BB25B0941F823200E
:104F30007047012210F01F018A404C4903005BB208
:104F40005B0941F82320704710B4020052B2002AD6
:104F500009D50A01464B040064B214F00F0423443F
:104F600003F8042C04E00A01424B040064B21A5511
:104F700010BC704770B4030013F00704D4F10700AD
:104F8000052801D3042001E0D4F10700251D072DD9
:104F900001D2002500E0E51E012616FA00F0401EB1
:104FA0000140A94016FA05F56D1E2A40114308007C
:104FB00070BC704710B50400601EB0F1807F01D353
:104FC00001200EE0601E2C4908600F215FF0FF30C9
:104FD000FFF7BAFF00202949086007202849086028
:104FE000002010BD10B504002000FFF783FF10BDA6
:104FF0002DE9F04104000D0016000027FFF789FF9E
:105000008046320029004046FFF7B4FF010020002F
:1050100040B2FFF799FFBDE8F08110B50400200011
:1050200040B2FFF77BFF10BD10B50400200040B276
:10503000FFF77FFF10BD10B504002000FFF7BAFF97
:1050400010BD042805D10E490A6852F004020A6016
:1050500004E00B490A6832F004020A60704700005D
:105060000CED00E00000FA0500E100E080E100E066
:1050700018ED00E000E400E014E000E018E000E0DB
:1050800010E000E080B501F01EFA01BD0060406054
:1050900070470100EFF3108272B60868884201D1B0
:1050A000012000E0002082F31088C0B27047EFF3C7
:1050B000108272B603680B60486001600B6859602B
:1050C00082F310887047EFF3108272B6086043686D
:1050D0004B6041604B68196082F310887047EFF3B2
:1050E000108172B6026843681A60426803685A60A9
:1050F00081F31088704770B504000D00EFF310863F
:1051000072B6206828602068FFF7E9FF0020296850
:10511000086000202968486086F3108870BD70B56B
:1051200004000D00EFF3108672B6606828606068B6
:10513000FFF7D5FF00202968086000202968486033
:1051400086F3108870BD01000020EFF3108372B663
:105150000A688A4202D0401C1268FAE783F310887A
:10516000704700002DE9FC4704000D0016001F00E9
:10517000DDF828805FF06409DFF808ACDAF8000099
:10518000012805DBDAF80000401ECAF8000013E031
:10519000CDF800803B00DBB23200D2B2290089B2E8
:1051A000200080B201F0C0FB81464846C0B2002812
:1051B00002D01E20CAF800004846C0B2BDE8F687FB
:1051C00070B58AB01B208DF8180006ACC520607041
:1051D000D520A070A520E070022020710020607111
:1051E000B420A0719A20E071E12020721120607239
:1051F0000F20A0720020E072002020730020607356
:105200000020A0730020E073DFF8606A009604239A
:10521000012206A9022001F097FA05002800C0B279
:1052200000283AD11B208DF81800C5206070D520C9
:10523000A070A520E070022020710020607136204F
:10524000A071AC20E071E1202072112060720F206B
:10525000A0720020E0720220207300206073002002
:10526000A0730020E073DFF8200B0590012004906C
:10527000102003900520029000200190142000903F
:10528000142306AA0221308801F0C2FA0500280082
:10529000C0B2002801D1002000E047200AB070BD54
:1052A00070B58AB01B208DF8180006ACC520607060
:1052B000D520A070A520E070022020710020607130
:1052C000B420A0719A20E071E12020721120607258
:1052D0000E20A0720020E072002020730020607376
:1052E0000020A0730020E073DFF8A06A0096072377
:1052F000012206A9022001F027FA05002800C0B209
:10530000002873D11B208DF81800C5206070D520AF
:10531000A070A520E070022020710020607136206E
:10532000A071AC20E071E1202072112060720E208B
:10533000A0720020E0720120207300206073002022
:10534000A0730020E073DFF8480A05900120049064
:105350001020039005200290002001901E20009054
:10536000142306AA0221308801F052FA0500280011
:10537000C0B200283AD11B208DF81800C5206070FB
:10538000D520A070A520E07002202071002060715F
:105390003620A071AC20E071E120207211206072F3
:1053A0000E20A0720020E0720220207300206073A3
:1053B0000020A0730020E073DFF8D80905900120D9
:1053C00004901020039004200290002001901220ED
:1053D0000090142306AA0221308801F019FA050072
:1053E0002800C0B2002801D1002000E047200AB008
:1053F00070BD2DE9F84F04000D005FF00008404635
:105400002900C0B2C9B2884235D2B5EB080001000C
:10541000C9B2152901DB142700E00700B9465FFA7D
:1054200089F94046C0B204EB000ADFF86CB94A467D
:105430005146584601F0F8FADFF860090770404617
:10544000C0B2204400903B00DBB20022DFF84409E8
:105450000188DFF83809008801F066FA060030009C
:10546000C0B2002801D0472006E00A20FFF731FD36
:1054700018F11408C3E70020BDE8F28F2DE9F84FBA
:1054800004000D005FF0000840462900C0B2C9B218
:10549000884239D2B5EB08000100C9B2152901DBF9
:1054A000142700E00700B9465FFA89F94046C0B208
:1054B00004EB000ADFF8E8B84A465146584601F0C6
:1054C000B3FADFF8E00807704046C0B2204400900D
:1054D0003B00DBB20022DFF8B8080188DFF8AC0837
:1054E000008801F021FA06003000C0B2002805D083
:1054F000DFF8780A01F0ECFA472006E01420FFF705
:10550000E8FC18F11408BFE70020BDE8F28F80B571
:10551000DFF884080090DFF8840803780022DFF8C1
:1055200074080188DFF86408008801F0FDF90100C3
:105530000800C0B2002801D0472000E0002002BDD2
:105540007CB5DFF85C080090DFF85808037800228B
:10555000DFF83C080188DFF83408008801F0E4F93E
:1055600004002000C0B200281BD0DFF80C0A00683D
:10557000800510D5DFF8045ADFF8046ADFF8EC196B
:10558000300001F0CBFA286028680100C9B2300071
:10559000FFF72FFF03E0DFF8D40901F099FA472065
:1055A00000E0002076BDF8B58AB005241B208DF8F8
:1055B000180006ADC5206870D520A870A520E87039
:1055C0000220287100206871B420A8719A20E87127
:1055D000E1202872112068720120A8720020E87270
:1055E00000202873002068730020A8730020E8734F
:1055F000DFF894690096032000FB04F0401C0300D0
:10560000DBB2012206A9022001F09EF80700380053
:10561000C0B2002840F038811B208DF81800C5204A
:105620006870D520A870A520E8700220287100209D
:1056300068713620A871AC20E871E1202872112031
:1056400068720120A8720020E872002028730020F0
:1056500068730020A8730020E873A87B50F0050051
:10566000A873DFF828090178091D0170A97B51F0A2
:105670000801A9730178891C0170A97B51F0100100
:10568000A9730178091D0170DFF804090590002055
:10569000049010200390042002900020019012201A
:1056A00000900C2306AA0221308801F0B1F807000F
:1056B0003800C0B2002840F0E7801B208DF81800A9
:1056C000C5206870D520A870A520E8700220287138
:1056D000002068713620A871AC20E871E1202872A2
:1056E000112068720120A8720020E872002028733F
:1056F00000206873E020A8730020E873DFF89408A6
:1057000005900020049010200390042002900020B7
:10571000019010200090142306AA0221308801F085
:1057200077F807003800C0B2002840F0AD801B2099
:105730008DF81800C5206870D520A870A520E870E5
:1057400002202871002068713620A871AC20E87111
:10575000E1202872112068720120A8720020E872EE
:1057600000202873042068730020A8730020E873C9
:10577000DFF810080590002004901020039004200A
:1057800002900020019012200090042306AA02211A
:10579000308801F03DF807003800C0B2002873D10E
:1057A0001B208DF81800C5206870D520A870A52092
:1057B000E87002202871002068713620A871AC20A2
:1057C000E871E1202872112068720120A87200207F
:1057D000E87200202873002068730020A87320203E
:1057E000E873DFF8E40A059000200490102003908D
:1057F000042002900020019012200090032306AAAA
:105800000221308801F004F807003800C0B20028F7
:105810003AD11B208DF81800C5206870D520A870DB
:10582000A520E87002202871002068713620A87138
:10583000AC20E871E1202872112068720120A87262
:105840000020E87200202873802068730020A8736D
:105850000020E873DFF8140B05900020049010205E
:10586000039001200290002001900C20009007235B
:1058700006AA0221308800F0CBFF07003800C0B232
:10588000002801D1002000E047200BB0F0BD2DE939
:10589000F84386B004000D001600FFF753F8C00867
:1058A0008DF80400FFF74EF8C00A8DF80500206857
:1058B0008DF8060001A821680912C17061680171A4
:1058C000616809128DF80910A1688DF80A10A168A5
:1058D00009128DF80B102968642291FBF2F12960FE
:1058E0006968642291FBF2F16960A968642291FB06
:1058F000F2F1A96029680172296809128DF80D106A
:1059000069688DF80E1069680912C172A8688DF86F
:105910001000A86800128DF8110030688DF8120090
:10592000306800128DF8130070688DF814007068EC
:1059300000128DF81500B0688DF81600B0680012DE
:105940008DF8170001A8009014230022DFF8440608
:105950000188DFF834060088FFF704FC07003800F0
:10596000C0B200281DD0DFF810060068800512D5EF
:10597000DFF80886DFF80896DFF8F419484601F0EA
:10598000CDF8C8F80000D8F800000100C9B24846B8
:10599000FFF72FFD03E0DFF8D80901F099F8472061
:1059A00000E0002007B0BDE8F0832DE9F84F84B097
:1059B00005000E0017009846FEF7C4FFC0088DF8DA
:1059C00004000DF10409FEF7BDFFC00A89F80100CB
:1059D00002242000C0B209F800502800001201A9DA
:1059E0002200D2B2114448702800001401A92200FC
:1059F000D2B2114488702800001601A92200D2B248
:105A00001144C870241D2000C0B209F800603000A5
:105A100080B2000A01A92200D2B211444870A41C2D
:105A20002000C0B209F80070380000B2001201A9CD
:105A30002200D2B211444870A41C2000C0B209F860
:105A40000080404600B2001201A92200D2B21144E7
:105A50004870A41C01A800900C230022DFF8300538
:105A60000188DFF82405008800F05EFF8146484683
:105A7000C0B200281DD0DFF800050068800512D5EF
:105A8000DFF8F8B4DFF8F8A4DFF8E818504601F0C2
:105A900045F8CBF80000DBF800000100C9B2504621
:105AA000FFF7A7FC03E0DFF8CC0801F011F847206E
:105AB00000E0002005B0BDE8F08FFEB50400FEF761
:105AC00041FFC0088DF80400FEF73CFFC00A8DF8C6
:105AD00005008DF8064001A8009003230022DFF89E
